:100000000C9462000C948A000C948A000C948A0070
:100010000C948A000C948A000C948A000C948A0038
:100020000C948A000C948A000C948A000C948A0028
:100030000C948A000C948A000C948A000C948A0018
:100040000C9447050C948A000C9415050C94EF044D
:100050000C948A000C948A000C948A000C948A00F8
:100060000C948A000C948A000000000024002700F1
:100070002A0000000000250028002B0000000008D6
:10008000000201000003040700000000000000005F
:1000900000000000230026002900040404040404D6
:1000A0000404020202020202030303030303010227
:1000B00004081020408001020408102001020408F6
:1000C0001020910511241FBECFEFD8E0DEBFCDBFB9
:1000D00011E0A0E0B1E0ECEFF3E102C005900D9279
:1000E000A636B107D9F722E0A6E6B1E001C01D921D
:1000F000AF31B207E1F710E0C2E6D0E004C02197CB
:10010000FE010E94F609C136D107C9F70E94DE053B
:100110000C94FC090C940000CF92DF92EF92FF92B6
:10012000CF93DF93B0911302A0E08111AB2F8091A8
:10013000140290E0880F991FAC0140575F4FC090A8
:100140001902D0901A02E0901B02F0901C0230E0DD
:1001500020E0FA01C591D491E881B90190E080E0F6
:10016000EB23EA130AC02F5F3F4F6C157D058E0508
:100170009F0578F36FEF7FEFCB01DF91CF91FF9079
:10018000EF90DF90CF900895AF92BF92CF92DF9221
:10019000EF92FF920F931F93CF93DF936C017B013C
:1001A0008B01040F151FEB015E01AE18BF08C017CD
:1001B000D10759F06991D601ED91FC910190F08140
:1001C000E02DC6010995892B79F7C501DF91CF9103
:1001D0001F910F91FF90EF90DF90CF90BF90AF9065
:1001E0000895FC01538D448D252F30E0842F90E03D
:1001F000821B930B541710F0CF9608950197089522
:10020000FC01918D828D981761F0A28DAE0FBF2FEA
:10021000B11D5D968C91928D9F5F9F73928F90E040
:1002200008958FEF9FEF0895FC01918D828D9817AF
:1002300031F0828DE80FF11D858D90E008958FEFEC
:100240009FEF0895FC01918D228D892F90E0805CB5
:100250009F4F821B91098F73992708958FE691E034
:100260000E94220121E0892B09F420E0822F0895C9
:1002700080E090E0892B29F00E942E0181110C94DE
:1002800000000895FC01A48DA80FB92FB11DA35A39
:10029000BF4F2C91848D90E001968F739927848FA6
:1002A000A689B7892C93A089B1898C9183708064C9
:1002B0008C93938D848D981306C00288F389E02D6A
:1002C00080818F7D80830895EF92FF920F931F931B
:1002D000CF93DF93EC0181E0888F9B8D8C8D9813F9
:1002E0001AC0E889F989808185FF15C09FB7F89405
:1002F000EE89FF896083E889F98980818370806451
:1003000080839FBF81E090E0DF91CF911F910F919B
:10031000FF90EF900895F62E0B8D10E00F5F1F4FAA
:100320000F731127E02E8C8D8E110CC00FB607FCB9
:10033000FACFE889F989808185FFF5CFCE010E9447
:100340004201F1CFEB8DEC0FFD2FF11DE35AFF4F72
:10035000F0829FB7F8940B8FEA89FB8980818062D5
:10036000CFCFCF93DF93EC01888D8823B9F0AA8992
:10037000BB89E889F9898C9185FD03C0808186FD60
:100380000DC00FB607FCF7CF8C9185FFF2CF8081AF
:1003900085FFEDCFCE010E944201E9CFDF91CF91E1
:1003A000089590E0FC01E458FF4F2491FC01E255D0
:1003B000FF4F3491FC01E656FF4FE491EE23C9F064
:1003C000222339F0233001F1A8F4213019F1223031
:1003D00029F1F0E0EE0FFF1FEE58FF4FA591B49109
:1003E0008FB7F894EC91611126C030953E233C9371
:1003F0008FBF08952730A9F02830C9F0243049F77D
:10040000809180008F7D03C0809180008F778093E2
:100410008000DFCF84B58F7784BDDBCF84B58F7D3F
:10042000FBCF8091B0008F778093B000D2CF8091C6
:10043000B0008F7DF9CF3E2BDACFCF93DF9390E0E2
:10044000FC01E255FF4F249186569F4FFC01849199
:100450008823D1F090E0880F991FFC01E859FF4FE5
:10046000A591B491FC01EE58FF4FC591D491623033
:1004700071F49FB7F8943C91822F809583238C93DD
:10048000E8812E2B28839FBFDF91CF9108958FB7EE
:10049000F894EC912E2B2C938FBFF6CF3FB7F894A6
:1004A0008091670190916801A0916901B0916A0102
:1004B00026B5A89B05C02F3F19F00196A11DB11DBF
:1004C0003FBFBA2FA92F982F8827BC01CD01620FFB
:1004D000711D811D911D42E0660F771F881F991FB6
:1004E0004A95D1F708958F929F92AF92BF92CF9283
:1004F000DF92EF92FF924B015C010E944E026B0172
:100500007C010E944E026C197D098E099F09683E8C
:10051000734081059105A8F321E0821A9108A10892
:10052000B10888EEC80E83E0D81EE11CF11C8114CE
:100530009104A104B10429F7FF90EF90DF90CF90D0
:10054000BF90AF909F908F900895CF92DF92EF92DF
:10055000FF920F931F93CF93DF93CDB7DEB7C054B5
:10056000D1400FB6F894DEBF0FBECDBF2FB7F894C1
:1005700080916B0190916C01A0916D01B0916E0121
:100580002FBF409115025091160260911702709191
:1005900018028C019D01041B150B260B370BB901AA
:1005A000A801403D57406105710590F480911D02FE
:1005B000C05CDE4F0FB6F894DEBF0FBECDBFDF913B
:1005C000CF911F910F91FF90EF90DF90CF90089502
:1005D0008093150290931602A0931702B09318020D
:1005E0001092100210920F0210920E0210920D0241
:1005F00010920C0262E0809111020E941D0261E0E3
:1006000070E080E090E00E94730261E0809111024E
:100610000E941D0260E0809111020E94D101809130
:1006200012028551823020F58BE291E10197F1F7BA
:1006300062E0809111020E941D0280911E0290E0F2
:100640008230910538F0880F991F880F991F059700
:100650000197F1F7F89480E00E948C006F3F7F4F84
:100660008F4F9F4F61F410921D02789480E0A0CFCD
:1006700064E170E080E090E00E947302D9CF81E0F5
:100680000E948C006F3F7F4F8F4F9F4F61F38E0111
:100690000F5F1F4F6E018FEBC81A8EEFD80A7801DB
:1006A00080E00E948C00F7016083718382839383D2
:1006B00081E00E948C00F7016483758386839783B1
:1006C000F8E0EF0EF11CEC14FD0451F7789430E0E3
:1006D00020E0F801C080D180E280F3804481558120
:1006E00066817781FFEFCF16DF06EF06FF0631F058
:1006F0004F3F8FEF58076807780719F410921D02D3
:10070000B5CFF90183E0F595E7958A95E1F7E45FC8
:10071000FD4F8081880FC416D506E606F70610F156
:1007200080832F5F3F4F085F1F4F2832310589F6C6
:100730004091100220910C0280910D02280F332766
:10074000331F80910E02280F311D80910F02820FFE
:10075000932F911D99274817190681F681E0809300
:100760001D0226CF8160DCCFFC0101900020E9F75B
:100770003197AF01481B590BBC018FE691E00C94F7
:10078000C4008F929F92AF92BF920F931F93CF930B
:10079000DF93CDB7DEB7A1970FB6F894DEBF0FBEDB
:1007A000CDBF19A2423008F44AE08E010F5D1F4F01
:1007B000842E912CB12CA12CA50194010E94D40966
:1007C000E62FB901CA01EA30F4F4E05DD801EE93F6
:1007D0008D01232B242B252B79F790E080E01097B7
:1007E00019F0CD010E94B403A1960FB6F894DEBFB4
:1007F0000FBECDBFDF91CF911F910F91BF90AF90F2
:100800009F908F900895E95CE1CFCF93DF930E9492
:10081000B403EC0182E191E00E94B4038C0F9D1FB0
:10082000DF91CF9108954F925F926F927F928F9256
:100830009F92AF92BF92CF92DF92EF92FF920F936F
:100840001F93CF936B017C01742EAC019B010E941E
:10085000CF09882399F085E191E0CF911F910F9105
:10086000FF90EF90DF90CF90BF90AF909F908F90D0
:100870007F906F905F904F900C94B40346015701A6
:10088000E894B7F82FEF3FEF4FE75FE7C501B401FA
:100890000E94CF0981110DC02FEF3FEF4FE75FE7B7
:1008A000C501B4010E94050818161CF489E191E005
:1008B000D4CF2FEF3FEF4FE75FE4C701B6010E94AF
:1008C0005D0918161CF48DE191E0C7CF2FEF3FEFC3
:1008D0004FE75FECC701B6010E94050887FDF3CF23
:1008E00020E030E0A901C701B6010E94050810E030
:1008F00000E087FF0AC06DE28FE691E00E9464018C
:100900008C01F7FAF094F7F8F094C0E060E070E042
:1009100080E09FE37C1641F020E030E040E251E4CB
:100920000E940A08CF5FF6CFA70196010E9499079F
:100930002B013C010E947C084B015C014AE00E94B3
:10094000C1037C01E00EF11ECC23C1F1C501B4014D
:100950000E94AB089B01AC01C301B2010E94980741
:100960004B015C016EE28FE691E00E946401E80EAB
:10097000F91EC15018F120E030E040E251E4C50119
:10098000B4010E9462092B013C010E947C084B01CA
:10099000B12CA12C4AE0C501B4010E94C103E80EAC
:1009A000F91EC501B4010E94AB089B01AC01C30153
:1009B000B2010E9498074B015C01DBCFC701CF91C8
:1009C0001F910F91FF90EF90DF90CF90BF90AF906D
:1009D0009F908F907F906F905F904F9008951F929F
:1009E0000F920FB60F9211242F933F934F935F9363
:1009F0006F937F938F939F93AF93BF93EF93FF93E7
:100A00008FE691E00E944201FF91EF91BF91AF917B
:100A10009F918F917F916F915F914F913F912F9116
:100A20000F900FBE0F901F9018951F920F920FB648
:100A30000F9211242F938F939F93EF93FF93E09145
:100A40007F01F09180018081E0918501F091860124
:100A500082FD1BC09081809188018F5F8F732091F0
:100A60008901821741F0E0918801F0E0E159FE4FE1
:100A7000958F80938801FF91EF919F918F912F9196
:100A80000F900FBE0F901F9018958081F4CF1F928A
:100A90000F920FB60F9211242F933F938F939F9332
:100AA000AF93BF9380916B0190916C01A0916D0108
:100AB000B0916E013091660123E0230F2D3758F578
:100AC0000196A11DB11D2093660180936B01909347
:100AD0006C01A0936D01B0936E01809167019091BC
:100AE0006801A0916901B0916A010196A11DB11D33
:100AF0008093670190936801A0936901B0936A01A4
:100B0000BF91AF919F918F913F912F910F900FBE09
:100B10000F901F90189526E8230F0296A11DB11D76
:100B2000D2CFEFE6F1E01382128288EE93E0A0E0EC
:100B3000B0E084839583A683B78384E091E09183BA
:100B4000808385EC90E09587848784EC90E097879C
:100B5000868780EC90E0918B808B81EC90E0938B8A
:100B6000828B82EC90E0958B848B86EC90E0978B67
:100B7000868B118E128E138E148EACE0B2E087E05D
:100B800015968C9315978BE016968C931697E5EB3C
:100B9000F0E0E4911796EC931797E1EAF0E0E49126
:100BA0001896EC93189740E85EE360E070E01D96BD
:100BB0004D935D936D937C9350970895789484B58D
:100BC000826084BD84B5816084BD85B5826085BD49
:100BD00085B5816085BD80916E00816080936E00D7
:100BE00010928100809181008260809381008091C9
:100BF000810081608093810080918000816080937A
:100C000080008091B10084608093B1008091B00039
:100C100081608093B00080917A00846080937A0034
:100C200080917A00826080937A0080917A0081605E
:100C300080937A0080917A00806880937A00109285
:100C4000C100E0917F01F091800182E08083E0911A
:100C50007B01F0917C011082E0917D01F0917E0199
:100C60008FEC808310928701E0918301F0918401E1
:100C700086E08083E0918101F09182018081806132
:100C80008083E0918101F09182018081886080837E
:100C9000E0918101F0918201808180688083E09100
:100CA0008101F091820180818F7D808361E088E005
:100CB0000E941D0262E0809111020E941D022FB766
:100CC000F89480916B0190916C01A0916D01B091AD
:100CD0006E012FBF805D9740A109B1098093150275
:100CE00090931602A0931702B093180287E38093A3
:100CF0001E02C0E0D0E00E94A502882349F0809146
:100D000012028B3028F08D3050F085518230C8F1BE
:100D1000812C912C30ECA32E3FE7B32E1EC06091A6
:100D20000D0270E090E080E00E94AD082DEC3CECFC
:100D30004CEC5DE30E9462096B017C0160910C0246
:100D400070E090E080E00E94AD089B01AC01C7011B
:100D5000B6010E9499074B015C010E94A5028823FD
:100D600009F4DFC0809112028C3009F4B5C0D8F4C8
:100D70008B3091F1C12CD12C90ECE92E9FE7F92E0C
:100D800055C060910C0270910D0276276727762777
:100D900090E080E00E94AB082DEC3CEC4CEC5DE375
:100DA0000E946209D8CF8551823020F710910E023F
:100DB000612F70E0762F662766277F7780910F027C
:100DC000682B90E080E00E94AB082DEC3CEC4CECF2
:100DD0005DE30E9462099CC060910E0270E090E0A9
:100DE00080E00E94AB086B017C0110910F0217FF9D
:100DF0000AC0AC019B0160E070E080E89FEB0E94BC
:100E000098076B017C011F70612F70E090E080E01B
:100E10000E94AD082DEC3CEC4CEC5DE30E946209B5
:100E2000A70196010E9499076B017C01A701960119
:100E3000C701B6010E94CF09811108C0A501940124
:100E4000C501B4010E94CF09882321F081E291E01D
:100E50000E94050489E391E00E94B40342E0C701C7
:100E6000B6010E94130482E191E00E94B40388E479
:100E700091E00E9405048AE591E00E94B40342E0FB
:100E8000C501B4010E94130482E191E00E94B40301
:100E900088E491E00E94050420E030E048EC51E451
:100EA000C701B6010E94050861E018160CF460E065
:100EB00088E00E94D10164EF71E080E090E00E9440
:100EC0007302209709F417CF0E942E01882309F49A
:100ED00012CF0E9400000FCF10910E02612F70E020
:100EE00090E080E00E94AB086B017C0160910F02F2
:100EF0006F7070E090E080E00E94AD082DEC3CEC5B
:100F00004CEC5DE30E946209A70196010E949907DB
:100F10006B017C0117FF8ACFF7FAF094F7F8F09491
:100F200085CFC12CD12C80ECE82E8FE7F82E8ECF08
:100F30005058BB27AA270E94B0070C9423090E948F
:100F4000150938F00E941C0920F039F49F3F19F46C
:100F500026F40C9412090EF4E095E7FB0C940C09AE
:100F6000E92F0E94340958F3BA1762077307840700
:100F7000950720F079F4A6F50C9456090EF4E09547
:100F80000B2EBA2FA02D0B01B90190010C01CA0143
:100F9000A0011124FF27591B99F0593F50F4503EEE
:100FA00068F11A16F040A22F232F342F4427585FE0
:100FB000F3CF469537952795A795F0405395C9F7F8
:100FC0007EF41F16BA0B620B730B840BBAF09150B0
:100FD000A1F0FF0FBB1F661F771F881FC2F70EC04F
:100FE000BA0F621F731F841F48F487957795679522
:100FF000B795F7959E3F08F0B0CF9395880F08F00E
:101000009927EE0F9795879508950E94E80808F4B0
:1010100081E008950E941E080C9423090E941C0977
:1010200058F00E94150940F029F45F3F29F00C9414
:101030000C0951110C9457090C9412090E9434099F
:1010400068F39923B1F3552391F3951B550BBB27F7
:10105000AA2762177307840738F09F5F5F4F220F3C
:10106000331F441FAA1FA9F335D00E2E3AF0E0E833
:1010700032D091505040E695001CCAF72BD0FE2F7D
:1010800029D0660F771F881FBB1F26173707480711
:10109000AB07B0E809F0BB0B802DBF01FF279358C9
:1010A0005F4F3AF09E3F510578F00C940C090C9478
:1010B00057095F3FE4F3983ED4F38695779567959B
:1010C000B795F7959F5FC9F7880F911D96958795FE
:1010D00097F90895E1E0660F771F881FBB1F62171D
:1010E00073078407BA0720F0621B730B840BBA0BDB
:1010F000EE1F88F7E09508950E943C0988F09F57FD
:1011000098F0B92F9927B751B0F0E1F0660F771F2B
:10111000881F991F1AF0BA95C9F714C0B13091F021
:101120000E945609B1E008950C945609672F782F54
:101130008827B85F39F0B93FCCF3869577956795E6
:10114000B395D9F73EF490958095709561957F4F52
:101150008F4F9F4F0895E89409C097FB3EF49095F8
:101160008095709561957F4F8F4F9F4F9923A9F080
:10117000F92F96E9BB279395F6958795779567950F
:10118000B795F111F8CFFAF4BB0F11F460FF1BC053
:101190006F5F7F4F8F4F9F4F16C0882311F096E9E6
:1011A00011C0772321F09EE8872F762F05C0662394
:1011B00071F096E8862F70E060E02AF09A95660F4D
:1011C000771F881FDAF7880F9695879597F9089506
:1011D000990F0008550FAA0BE0E8FEEF1616170648
:1011E000E807F907C0F012161306E407F50798F0B0
:1011F000621B730B840B950B39F40A2661F0232BC9
:10120000242B252B21F408950A2609F4A140A69544
:101210008FEF811D811D089597F99F6780E870E029
:1012200060E008959FEF80EC089500240A9416165C
:10123000170618060906089500240A9412161306C4
:10124000140605060895092E0394000C11F4882352
:1012500052F0BB0F40F4BF2B11F460FF04C06F5F6E
:101260007F4F8F4F9F4F089557FD9058440F551F44
:1012700059F05F3F71F04795880F97FB991F61F018
:101280009F3F79F087950895121613061406551F8F
:10129000F2CF4695F1DF08C0161617061806991FFB
:1012A000F1CF86957105610508940895E894BB27F0
:1012B00066277727CB0197F908950E94E80808F47C
:1012C0008FEF08950E9475090C9423090E94150957
:1012D00038F00E941C0920F0952311F00C940C09A1
:1012E0000C94120911240C9457090E94340970F3CC
:1012F000959FC1F3950F50E0551F629FF001729FBB
:10130000BB27F00DB11D639FAA27F00DB11DAA1FC9
:10131000649F6627B00DA11D661F829F2227B00D16
:10132000A11D621F739FB00DA11D621F839FA00DA1
:10133000611D221F749F3327A00D611D231F849FF1
:10134000600D211D822F762F6A2F11249F57504048
:101350009AF0F1F088234AF0EE0FFF1FBB1F661FC3
:10136000771F881F91505040A9F79E3F510580F08C
:101370000C940C090C9457095F3FE4F3983ED4F3A6
:10138000869577956795B795F795E7959F5FC1F730
:10139000FE2B880F911D9695879597F908950E94C9
:1013A000E808880B990B0895A1E21A2EAA1BBB1B13
:1013B000FD010DC0AA1FBB1FEE1FFF1FA217B30721
:1013C000E407F50720F0A21BB30BE40BF50B661F37
:1013D000771F881F991F1A9469F7609570958095FB
:1013E00090959B01AC01BD01CF010895EE0FFF1F49
:0C13F0000590F491E02D0994F894FFCFD3
:1013FC00000000006401C400F100B10122010001F1
:10140C0014010D0A006E616E00696E66006F7666DF
:10141C00004661696C656420746F2072656164209C
:10142C0066726F6D204448540054656D706572612E
:10143C0074757261203D20002D2D2D2D2D2D2D2DFF
:10144C002D2D2D2D2D2D2D2D2D0048756D696461A3
:06145C006465203D200044
:00000001FF
